:020000040800F2
:10000000480F002001010008531C0008631A000873
:10001000511C0008C5020008532000080000000021
:100020000000000000000000000000009B1D000810
:100030000B03000800000000551C00089D1D00086F
:100040001B0100081B0100081B0100081B01000820
:100050001B0100081B0100081B0100081B01000810
:100060001B0100081B0100081B010008C902000851
:100070001B010008D50200081B0100081B01000835
:100080001B0100081B0100081B0100081B010008E0
:100090001B0100081B0100081B0100081B010008D0
:1000A0001B0100081B0100081B0100081B010008C0
:1000B000491E0008551E00081B0100081B0100080E
:1000C0001B0100081B0100081B0100081B010008A0
:1000D0001B0100081B0100081B0100081B01000890
:1000E0001B0100081B0100081B010008DFF80CD0F1
:1000F00000F040F800480047E5240008480F0020C1
:100100000648804706480047FEE7FEE7FEE7FEE7B1
:10011000FEE7FEE7FEE7FEE7FEE7FEE7011E00085A
:10012000ED000008D2B201E000F8012B491EFBD21D
:1001300070470022F6E710B513460A4604461946F2
:10014000FFF7F0FF204610BD30B50B4601460020FA
:100150002022012409E021FA02F59D4205D303FA89
:1001600002F5491B04FA02F52844151EA2F101020A
:10017000F1DC30BD064C074D06E0E06840F00103BD
:1001800094E8070098471034AC42F6D3FFF7B2FF6B
:10019000C4250008E425000870B50446006881689D
:1001A000C943C9071BD1816821F00101816000F0BA
:1001B000E9FC05460EE000F0E5FC401B022809D9E9
:1001C000A06A40F01000A062E06A40F00100E06226
:1001D000012070BD20688068C043C007EBD00020BC
:1001E00070BD10B50146406A826A12F0500F05D00A
:1001F000006A026BBDE8104008461047816A41F46E
:100200000071816201688968C1F3424107290CD1FC
:10021000017B51B9816A21F480718162816AC904CC
:1002200003D4816A41F00101816200F0EFF810BD52
:1002300010B5406A816A41F040018162C16A41F0B3
:100240000401C16200F0EDF810BD10B5406A00F085
:10025000E7F810BDF8B500260446009600688168EE
:10026000C943C90727D0816841F001018160134863
:1002700013490068B0FBF1F000E0401E0090002838
:10028000FBD100F07FFC054610E000F07BFC401B3A
:1002900002280BD9A06A40F01000A062E06A40F08A
:1002A0000100E06284F824600120F8BD20688068C5
:1002B000C043C007E9D10020F8BD00000C000020B9
:1002C00040420F00FEE70000014800F051BA000074
:1002D00050000020014800F04BBA0000F800002058
:1002E00030B590F840500124AC40C56B6C60046898
:1002F00063604368102B036803D099600068C26094
:1003000030BD9A600068C16030BD70477047000022
:10031000F8B50023009390F824201C46012A12D03F
:10032000012280F824204A681F26072A0DD205687A
:100330006F6B521E02EB82029640B7430E689640E6
:1003400037436F6319E00220F8BD05680D2A0AD211
:100350002F6BD21F02EB82029640B7430E68964085
:1003600037432F6309E0EF6A0D3A02EB82029640B1
:10037000B7430E6896403743EF620A680726056860
:100380000A2A0AD3EF680A3A02EB42029640B743C0
:100390008E6896403743EF6008E02F6902EB420217
:1003A0009640B7438E68964037432F610A68102AFB
:1003B00001D0112A20D1124D0268AA4217D19568A6
:1003C0002D0219D4956845F4000595600968102937
:1003D00012D10C490C4A0968B1FBF2F101EB810121
:1003E000490000E0491E00910029FBD104E0816A28
:1003F00041F020018162012380F824401846F8BDB5
:10040000002401400C00002040420F0010B502F013
:10041000BBF802490120087010BD00000200002056
:10042000704770472DE9F0414FF000060400354653
:100430007DD0A06A002728B9E76284F8247020469E
:1004400000F07EF82046FFF7A7FEA16AC90600D497
:1004500020B1A06A40F01000A06268E0A16A21F417
:10046000885141F00201A1626268E169237B0A437D
:1004700046EA43010A43A1684FF48076B14208D0AE
:10048000012906D0002194F814C0BCF1010F02D05C
:100490000AE03146F7E7F3B1A36A43F02003A36211
:1004A000E36A43F00103E3622368D3F804C02CF449
:1004B000694C4CEA010CC3F804C021688B68DFF872
:1004C00074C003EA0C0313438B60A168B1420BD0E4
:1004D000012909D00CE0DFF860C0A3690CEB4333BD
:1004E0000B4343F40061DFE7218A0D05A5F5801574
:1004F0002168CB6A23F470032B43CB62216889689F
:100500000E4B1940914208D1E762A16A21F0020125
:1005100041F00101A162BDE8F081A06A20F0020073
:1005200040F01000A062E06A40F00100E0620120AB
:10053000F1E70000FDF7E1FF00E0FFFFFE0E1FFF07
:1005400070B586B00024064600940194029403948A
:1005500000681A4988422ED11949886940F4007010
:100560008861886900F400700490886940F0040094
:1005700088618869694600F00400049001200090B9
:10058000032001900F4800F017FA104D0E48C5E9FE
:1005900000048020C5E902404000286180006861B5
:1005A0002020C5E90604284600F08EF908B1FFF7BF
:1005B000ADFE35626E6206B070BD000000240140E1
:1005C00000100240000801400800024050000020D6
:1005D0002DE9F047894604463B4900683B4F0E1D14
:1005E0009046884201D0B84207D1306810F4702F8D
:1005F00003D001252846BDE8F08794F8240001289F
:100600000CD0012084F824002046FFF723FE0500CB
:100610004FF0000104D084F82410EBE70220EAE751
:10062000A06A40F60162904340F48070A0622068A6
:10063000B84218D1326812F4702F14D0A06A40F476
:100640008010A0623068400505D5A06A20F40050F3
:1006500040F48050A062A06AC0040AD5E06A20F08D
:100660000600E06206E0A26A22F48012A2624068FC
:10067000E9E7E16284F82410216A15488862216A5A
:100680001448C862216A1448086321686FF00200A8
:1006900008602068816841F4807181602168434668
:1006A0004A464C31206A00F03DF920688168C1F368
:1006B00042410729816803D041F48011816099E7A4
:1006C00041F4A001FAE700000024014000280140A5
:1006D000E30100084B0200083102000810B504468F
:1006E00090F82400012807D0012084F82400204637
:1006F000FFF752FD10B10EE0022010BD20688168A6
:1007000021F480718160206A00F00EF8A16A30B196
:1007100041F04001A162002184F8241010BD21F4B1
:10072000885141F00101F5E710B590F82110002241
:10073000022905D00421816380F82020012010BD0A
:1007400001680B6823F00E030B6001680B6823F04F
:1007500001030B6090F84030012404FA03F1C36BED
:10076000596080F8214080F82020104610BD00001C
:100770002DE9F05FC16B0B6801680A68046C4FF0EB
:10078000040C0CFA04FC4A4DDFF828A14A4E4B4FEA
:10079000DFF82CB1DFF82CE11CEA030F2DD05FEA63
:1007A000427C2AD50A68920603D40A6822F0040221
:1007B0000A600168A94201D1042119E0514501D123
:1007C000402115E0B14202D14FF4806110E0B942FE
:1007D00002D14FF480410BE0594502D14FF4802102
:1007E00006E0714502D14FF4800101E04FF08061D5
:1007F0002F4A083A5160C16A3BE04FF0020808FAFC
:1008000004F818EA030F4FF000094FF0010C35D03F
:100810005FEA827832D50A68920605D40A6822F027
:100820000A020A6080F821C00168A94201D10221B0
:1008300019E0514501D1202115E0B14202D14FF418
:10084000007110E0B94202D14FF400510BE059455C
:1008500002D14FF4003106E0714502D14FF400118E
:1008600001E04FF00071124A083A516080F8209080
:10087000816A00291AD0BDE8F05F08470825A54025
:100880001D4213D0120711D50A6822F00E020A6029
:1008900090F84010C26B0CFA01F15160C0F838C0FA
:1008A00080F821C080F82090016BE2E7BDE8F09F5E
:1008B000080002401C000240300002404400024098
:1008C000580002406C00024030B528B302C8134AF9
:1008D00014230A44B2FBF3F29200C263104A82630B
:1008E000022242770B6843F6F0729343D0E900246A
:1008F0002243D0E902452C43224304692243446940
:100900002243846922431A430A6000214163012281
:1009100042770177084630BD012030BDF8FFFDBFAA
:100920000000024070B5044690F820000025012820
:100930000CD0012084F8200094F821600020012EC2
:1009400006D084F820000225284670BD022070BD24
:10095000022684F82160A0632068066826F001065C
:1009600006602046FFF7BCFCE06A002820680168AA
:1009700002D041F00E0106E021F004010160206880
:10098000016841F00A0101602068016841F001013D
:100990000160D9E770B5044600F0F4F80546601C24
:1009A00002D004480078044400F0ECF8401BA04258
:1009B000FAD370BD100000202DE9F84FDFF8A491A4
:1009C000002409F1040A0AF1040B23464FF00F0832
:1009D0000BF1040EBEE00127A7403A40BA4272D1A3
:1009E000DFF884C14D68A5EB0C0665452BD00DDC06
:1009F000032D34D005DC35B3012D19D0022D2FD1B4
:100A00001BE0112D16D0122D2AD119E0B6F5881F42
:100A100019D006DCB6F5803F15D0B6F5801F1FD182
:100A200011E0B6F5001F0ED0B6F5041F18D10AE08C
:100A3000CB6815E0CB681B1D12E0CB6808330FE0D4
:100A4000CB680C330CE08B682BB1012B4FF0080303
:100A500003D0476104E0042302E0076100E00023C3
:100A6000FF2A01D8064601E000F104064FEA84059A
:100A700001D9A5F12005376808FA05FC27EA0C071B
:100A800003FA05F547EA050737604D68ED0060D5C4
:100A9000364DAE6946F00106AE61AD6924F003063D
:100AA00005F001050095324D7719BE68A5072D0F99
:100AB00008FA05FC26EA0C06DFF8B8C0604503D149
:100AC0004FF0000C17E044E0DFF8ACC0604502D105
:100AD0004FF0010C0FE0DFF8A4C0604502D14FF0E9
:100AE000020C08E0DFF898C0604502D14FF0030C1B
:100AF00001E04FF0040C0CFA05FC4CEA060CC7F8B8
:100B000008C04D68D9F80060ED034D4601D5164385
:100B100000E096432E604D68DAF80060AD0355465C
:100B200001D5164300E096432E604D68DBF8006067
:100B3000ED025D4601D5164300E096432E604D68F8
:100B4000DEF80060AD02754601D5164300E096431D
:100B50002E60641C0A6832FA04F57FF43CAFBDE8ED
:100B6000F88F000000040140000011100010024046
:100B70000000014000080140000C0140001001404D
:100B800000140140014880687047000010000020F8
:100B9000024881680278114481607047100000208B
:100BA000074810B5016841F010010160032000F012
:100BB0008FF8002000F006F800F03EF8002010BD8D
:100BC0000020024000B5014687B000221C2000F042
:100BD0005FF81C2000F04EF81448C16941F0010193
:100BE000C161C06905A900F001000690684600F0E7
:100BF00091F900F0AFF90E494000B0FBF1F10D485A
:100C00004FF08042491E0260416040F2E73200210D
:100C1000C0E90321816000F09AFC10B1012007B007
:100C200000BD044800F0CCFCF9E7000000100240D1
:100C300040420F003C0100200C4808B5816941F09A
:100C400001018161816901F001010091C16941F0F7
:100C50008051C161C069064900F080500090486829
:100C600020F0E06040F00070486008BD00100240D5
:100C700000000140002809DB00F01F020121914023
:100C80004009800000F1E020C0F80011704700002A
:100C9000F0B40E4B1B68C3F30223C3F10704042C0A
:100CA00000D904241D1D072D01D2002300E0DB1E06
:100CB000012606FA04F56D1E0D409D409E40761EED
:100CC000164045EA0601F0BC01F086BA0CED00E0E2
:100CD000064A00F0070110684FF6FF03184040EA8B
:100CE0000120034908431060704700000CED00E04C
:100CF0000000FA052DE9F84304460078344FC00798
:100D000052D0F8690025C00008D4F86940F080503E
:100D1000F861F869012500F0805000902D480168C5
:100D2000C90511D40168804641F480710160FFF764
:100D300029FF064604E0FFF725FF801B642822D820
:100D4000D8F80000C005F6D5386A10F4407020D0FD
:100D5000A18801F4407181421BD0386A1E490122EA
:100D600020F440700A6000220A603862C00710D088
:100D7000FFF708FF064641F2883807E0FFF702FF59
:100D8000811B414502D90320BDE8F883386A8007FA
:100D9000F4D5386A616820F44070084338621DB1A8
:100DA000F86920F08050F8612078800705D57868D0
:100DB000A16820F44040084378602078C00605D53B
:100DC0007868E16820F48000084378600020DBE761
:100DD0000010024000700040400442422DE9F047FC
:100DE0000D46040067D0DFF81881D8F8000000F045
:100DF0000700A8420CD2D8F8001021F007012943BF
:100E0000C8F80010D8F8000000F00700A84252D13E
:100E100020683C4E810712D5400703D5706840F426
:100E2000E06070602078000703D5706840F460507F
:100E300070607068A16820F0F0000843706020784E
:100E4000C00727D06068012810D03168022810D070
:100E5000890700292FDA716821F0030101437160CD
:100E6000FFF790FE074641F288390CE031688903AC
:100E7000EFE78901EDE7FFF785FEC11B494502D980
:100E80000320BDE8F0877068616800F00C00B0EBEB
:100E9000810FF0D1D8F80010404601F00701A942B7
:100EA0000BD9016821F0070129430160006800F0B7
:100EB0000700A84201D00120E3E72078400705D5CC
:100EC0007068E16820F4E0600843706020780007F3
:100ED00006D57068216920F4605040EAC100706056
:100EE00000F058F87168084AC1F30311515CC8401A
:100EF0000649086006480068FFF764FE0020C0E766
:100F00000020024000100240AC2500080C00002028
:100F1000140000200F2202600C4A536803F0030300
:100F20004360536803F0F0038360536803F4E063A5
:100F3000C36052684FF4E06303EAD20202610448DE
:100F4000006800F0070008607047000000100240D1
:100F5000002002400448054900684968044AC1F37A
:100F60000221515CC84070470C0000200010024074
:100F7000BC2500080448054900684968044AC1F3D3
:100F8000C221515CC84070470C0000200010024094
:100F9000BC25000812A085B00FC88DE80F0014A072
:100FA000144B006804905968134801F00C02042A9D
:100FB00010D0082A0ED1C1F38342C9031DF80200E4
:100FC0000AD5596804AAC1F34041515C0A4A50430A
:100FD000B0FBF1F005B0704708494843FAE700005C
:100FE00002030405060708090A0B0C0D0E0F10106A
:100FF000010200000010024000127A0000093D00CA
:101000002DE9F84F04006FD02078BE4DC00747D0BF
:101010006868C0F38100012807D06868C0F38100C8
:10102000022809D16868C00306D52868800337D52F
:1010300060680028E7D033E06068B0F5803F0BD0EF
:1010400010B1B0F5A02F11D0286820F480302860AE
:10105000286820F4802002E0286840F4803028606E
:10106000606888B1FFF78EFD064609E0286840F405
:1010700080202860F0E7FFF785FD801B642873D887
:1010800028688003F7D50BE0FFF77CFD064604E0F7
:10109000FFF778FD801B6428F1D828688003F7D417
:1010A0002078DFF8648280074FF0010A4FF00009D2
:1010B00039D5686810F00C0F07D06868C0F381005C
:1010C000022809D16868C00306D42868800714D5AF
:1010D0002069012808D110E02069B0B1C8F800A04B
:1010E000FFF750FD064605E007E1FFF74BFD801BCB
:1010F0000228C4D828688007F7D52868616920F0DD
:10110000F80040EAC10028600DE0C8F80090FFF741
:1011100039FD064604E0FFF735FD801B022823D881
:1011200028688007F7D4207800072CD57748A16974
:10113000D9B1C0F800A0FFF725FD064604E0FFF78F
:1011400021FD801B02280FD8686A8007F7D57048F8
:101150004FF4FA510068B0FBF1F0009000BF009826
:10116000411E0091FAD20EE07CE0C0F80090FFF73B
:1011700009FD064604E0FFF705FD801B022871D833
:10118000686A8007F7D4207840075BD5E8690027B4
:10119000C00008D4E86940F08050E861E8690127A0
:1011A00000F0805000905B480168C90511D40168C7
:1011B000834641F480710160FFF7E4FC064604E0D9
:1011C000FFF7E0FC801B64284CD8DBF80000C0056A
:1011D000F6D5E06801280AD008B1052813D0286A9E
:1011E00020F001002862286A20F0040002E0286A4A
:1011F00040F001002862E06841F2883B88B1FFF7C7
:10120000C1FC064609E0286A40F004002862EEE7C7
:10121000FFF7B8FC811B59455BD8286A8007F7D5D2
:101220000BE0FFF7AFFC064604E0FFF7ABFC811BC9
:1012300059454ED8286A8007F7D41FB1E86920F0D5
:101240008050E861E069A8B36968C1F381010229AF
:1012500046D00228484606D0C8F86000FFF792FC46
:10126000044639E035E04746C8F86000FFF78AFCDD
:10127000064604E0FFF786FC801B022829D8286870
:101280008001F7D4206AB0F5803F05D16868A16875
:1012900020F4003008436860D4E908010843696815
:1012A00021F4741108436860C7F860A0FFF76AFC76
:1012B000044605E023E0FFF765FC001B022808D880
:1012C00028688001F7D51AE0FFF75CFC001B0228B4
:1012D00002D90320BDE8F88F28688001F4D40EE01D
:1012E0000128F7D06868226A00F48031914204D165
:1012F000616A00F47010884201D00120EAE7002002
:10130000E8E7000000100240000042428004424230
:101310000C00002000700040704770B5040005D03C
:101320000025A56294F8510010B106E0012070BDBF
:1013300084F85050204600F02FF8022084F8510025
:101340002068016821F040010160D4E901010843EF
:10135000D4E903121143084361690843218B01F466
:1013600000710843E1690843216A0843A16A084300
:1013700021680860A069042101EA104021684860E2
:101380002068C16921F40061C1616565012084F8AC
:101390005100002070BD000070B586B000240646E4
:1013A000009401940294039400681E49884237D146
:1013B0001D48816941F480518161816901F4805146
:1013C0000491816941F0040181618069174D00F049
:1013D00004000490A02000900220019003200390BC
:1013E00069462846FFF7E8FA4020CDE9000469463F
:1013F00028460294FFF7E0FA0E4D0D4828601020B1
:10140000C5E901048020C5E903046C61AC6128468C
:10141000EC61FFF759FA08B1FEF778FFB5646E6228
:1014200006B070BD003001400010024000080140CD
:1014300030000240F80000202DE9F041044690F809
:1014400050000025012809D0012784F8507094F835
:1014500051000026012804D0022549E00220BDE801
:10146000F08189B182B1032084F85100666521635F
:10147000A286E286A66366642664A687E687A068DD
:10148000B0F5004F02D006E0012531E02068016888
:1014900041F480410160A16C1748C862A16C1748F3
:1014A0008862A16C16480863A06C4663E38E2268CC
:1014B000216B0C32A06CFFF735FA38B1606D40F04B
:1014C00010006065012584F8517011E02068016802
:1014D000490603D4016841F0400101602068416879
:1014E00041F0200141602068416841F00201416003
:1014F00084F850602846B2E7791C0008831C000875
:10150000571C0008704770477047704770B590F8D7
:101510003C20012A19D0012500F83C5F02224270CC
:1015200050F83C2C5368946823F070060B684968A7
:10153000334324F080042143536050F83C2C9160E5
:10154000457000210170084670BD022070BD10B5C5
:10155000040003D094F83D0010B107E0012010BD55
:10156000002084F83C00204600F00CF8022084F8AB
:101570003D00211D206800F073FC012084F83D002F
:10158000002010BD08B500680B49884212D10B48F5
:10159000C16941F00201C161C069002200F002008E
:1015A000009011461D20FFF773FBBDE808401D2089
:1015B000FFF760BB08BD00000004004000100240BF
:1015C0000168CA6842F00102CA600068816801F0DF
:1015D0000701062903D0016841F0010101600020E4
:1015E00070470168CA6822F00102CA600068016A97
:1015F00041F21112114207D1016A9210114203D136
:10160000016821F0010101600020704770B50446B7
:1016100090F83C00012817D0012584F83C500220A6
:1016200084F83D002068826822F0770222F47F422D
:1016300082600868502830D00DDC20284DD005DCB1
:1016400098B310283BD148E0022070BD302844D028
:10165000402834D139E0602828D0702806D0B0F571
:10166000805F2CD0B0F5005F29D10AE0CB68D1E9CA
:101670000121206800F02AFC2068816841F0770190
:1016800009E0CB68D1E90121206800F01FFC206847
:10169000816841F48041816011E0CA68496820682E
:1016A00000F026FC5021206807E016E0CA6849686F
:1016B000206800F02EFC6021206800F011FC84F806
:1016C0003D50002084F83C0070BDCA68496820681D
:1016D00000F00EFC40212068EFE72268014610462A
:1016E000EBE7704770B50446006801694FF00005EC
:1016F000C943890715D4C168C943890711D4E91EB4
:10170000016101202077206880698007204602D08F
:10171000FFF7E7FF04E000F098F8204600F096F8A5
:10172000257720680169C943490717D4C168C943AF
:10173000490713D46FF0040101610220207720686B
:10174000806910F4407F204602D0FFF7CAFF04E012
:1017500000F07BF8204600F079F8257720680169D1
:10176000C943090716D4C168C943090712D46FF0E9
:1017700008010161042020772068C06980072046A5
:1017800002D0FFF7AEFF04E000F05FF8204600F063
:101790005DF8257720680169C943C90617D4C16877
:1017A000C943C90613D46FF01001016108202077E6
:1017B0002068C06910F4407F204602D0FFF791FFF7
:1017C00004E000F042F8204600F040F82577206859
:1017D0000169C943C90708D1C168C943C90704D110
:1017E000891E0161204600F033F820680169C94371
:1017F000090609D4C168C943090605D46FF0800100
:1018000001612046FFF780FE20680169C94349064F
:1018100009D4C168C943490605D46FF0400101618C
:10182000204600F031F820680169C94389060BD4CD
:10183000C168C943890607D46FF0200101612046C1
:10184000BDE87040FFF761BE70BD70477047000093
:1018500010B504460068B0F1804F01D1FFF798F948
:101860000749206888420AD106490878401CC0B25E
:101870000870142803D9012048700020087010BD9A
:101880000004004000000020704770B5040004D040
:1018900094F83900002510B106E0012070BD84F8ED
:1018A0003850204600F022F8242084F839002068BF
:1018B000C16821F40051C160204600F03DFB206862
:1018C000016921F4904101612068416921F02A01F8
:1018D00041612068C16841F40051C160E563202086
:1018E00084F8390084F83A00002070BD70B586B0E5
:1018F0000024009401940294039401682648254E24
:10190000022203230515B1421ED1816941F48041B1
:101910008161816901F480410491816941F0040190
:10192000816180691D4E00F0040004901002CDE931
:101930000002694603933046FFF73EF8CDE90054B4
:1019400069463046029420E0154EB1421FD1C1696C
:1019500041F48021C161C16901F480210491816950
:1019600041F0080181618069CDE9005200F0080072
:10197000CDE903300B4D69462846FFF71DF8E81402
:10198000CDE90004694628460294FFF715F806B031
:1019900070BD000000380140001002400008014006
:1019A00000480040000C01402DE9F843044690F83F
:1019B00039001E4617460D46202850D1A5B19FB1CB
:1019C00094F8380001284AD0012084F838004FF0FC
:1019D0000008C4F83C80212084F83900FFF7D2F8D1
:1019E000A7848146E78426E00120BDE8F883E08CE7
:1019F000401EE084A0684B46B0F5805F4FF00002C7
:101A00004FF080012046009603D000F0F1FAE8B9CB
:101A10000DE000F0EDFAC8B928882168C0F308008D
:101A20004860206908B16D1C05E0AD1C03E0216829
:101A300015F8010B4860E08C0028D8D14B460022F5
:101A400040212046009600F0D3FA08B10320CCE7ED
:101A5000202084F8390084F838800020C5E702206F
:101A6000C3E7FEE73EB500241148009401940294B8
:101A70000E498460016001250573047505614FF40A
:101A800060214460C161FEF7CDFC08B1FEF73EFC69
:101A900007200094CDE9015069460548FEF738FC5F
:101AA000002801D0FEF732FC3EBD000000240140BA
:101AB000200000200D4808B5416941F00101416155
:101AC0004069002200F00100009011460B20FFF752
:101AD000DFF80B20FFF7CEF8002211460D20FFF7AC
:101AE000D7F8BDE808400D20FFF7C4B80010024049
:101AF0000D4808B5816941F020018161816901F0DB
:101B000020010091816941F004018161816901F046
:101B100004010091816941F008018161806900F050
:101B20000800009008BD000000100240104810B5E9
:101B30000E4901604FF482714160002102228160F0
:101B4000C0E903121202C0E905121822C0E90721F8
:101B5000416281620A21C162FFF7DFFB002803D0E6
:101B6000BDE81040FEF7D2BB10BD000000300140C0
:101B7000A000002010B586B00024184800940194FD
:101B800002940394049414490594016041F2BF2126
:101B9000C0E9011440F2E731C0E9031480218161FA
:101BA000FFF7D5FC08B1FEF7B1FB4FF48050009071
:101BB00069460A48FFF72AFD08B1FEF7A7FB04941F
:101BC00004A906480594FFF7A1FC002801D0FEF700
:101BD0009DFB06B010BD0000000400407C01002009
:101BE0000C4810B50A4901604FF4E1314160002111
:101BF00081600C22C160C0E904128161C161FFF7FC
:101C000044FE002803D0BDE81040FEF77FBB10BDA6
:101C100000380140BC0100200C4810B50A490160A1
:101C20004FF4E1314160002181600C22C160C0E9C4
:101C300004128161C161FFF728FE002803D0BDE8CE
:101C40001040FEF763BB10BD00480040FC010020BF
:101C5000FEE77047704710B5406A01684A6822F095
:101C600003024A60416D41F010014165012180F895
:101C70005110FFF751FB10BD10B5406AFFF743FC50
:101C800010BD38B50546446AFEF77CFF0246286859
:101C90000068800623D42068416821F0200141605B
:101CA0002068416821F0020141606421204600F073
:101CB0001AF818B1606D40F020006065A06800213E
:101CC00018B92068C26880680090E186012084F815
:101CD0005100606D18B12046FFF71EFB38BD20464D
:101CE000FFF710FC38BD38B50B46009204460022C1
:101CF000802100F008F8002804D0606D40F020003A
:101D00006065032038BD2DE9F0411D4617460E469B
:101D10000446DDF8188008E0681C06D0FEF732FFA4
:101D2000A0EB0800A8420BD255B12068806836EAC3
:101D3000000030D00020B842EED10020BDE8F08194
:101D40002068416821F0E00141606068B0F5827F61
:101D50000BD1A068B0F5004F02D0B0F5806F04D170
:101D60002068016821F040010160A06AB0F5005FC1
:101D700009D12068016821F40051016020680168E0
:101D800041F400510160012084F85100002084F8E2
:101D900050000320D2E70120CDE77047704730B5EF
:101DA00093B028216846FEF7C4F914210AA8FEF76B
:101DB000C0F9002401210F9410940804CDE900100B
:101DC00011941294029402250491CDE90750000168
:101DD00009906846FFF714F90F20CDE90A0568025B
:101DE000CDE90C4001210AA80E94FEF7F7FF680325
:101DF00011900F950FA8FEF77DFF13B030BD0000C6
:101E00000D48016841F00101016041680B4A114031
:101E1000416001680A4A11400160016821F4802193
:101E20000160416821F4FE0141604FF41F018160AF
:101E30000449C00308607047001002400000FFF82A
:101E4000FFFFF6FE08ED00E00148FFF74BBC000085
:101E50003C0100200148FFF745BC00007C01002048
:101E6000F0B50268164C174D174E4FF08047A04250
:101E700005D0B84203D0A84201D0B04203D122F02D
:101E800070034A681A43A04205D0B84203D0A84262
:101E900001D0B04203D122F44073CA681A434B699F
:101EA00022F080021A4302608A68C2620A68826273
:101EB000A04201D10969016301214161F0BD000027
:101EC000002C0140000400400008004010B5846868
:101ED00042EA032224F47F440A432243826010BD75
:101EE000826822F070020A4342F007018160704765
:101EF00010B5046A036A23F001030362836923F0C7
:101F0000F00343EA021324F00A020A4383610262E7
:101F100010BD10B5036A23F0100303628469036ADD
:101F200024F4704444EA023223F0A00343EA01118E
:101F30008261016210BD00002DE9F0410446006895
:101F40000169E26821F4405111430161A1682069EF
:101F50000143606901432068C26841F20C639A43FF
:101F60000A43C26020684169A26921F440711143AB
:101F700041611E49206864253226884202D1FEF75D
:101F8000F9FF01E0FEF7E6FF00EBC00101EB0011F5
:101F900060686FF018078000B1FBF0F2B2FBF5F259
:101FA000B1FBF0F37A4303EB8202B1FBF0F306EBF3
:101FB0000212B2FBF5F2B3FBF5F302F0F00202EB12
:101FC0000312B1FBF0F3B1FBF0F0B0FBF5F0784396
:101FD00003EB800006EB0010B0FBF5F0216800F089
:101FE0000F0010448860BDE8F08100000038014017
:101FF0002DE9F0411E46174688460446069D1CE022
:10200000681C1AD025B1FEF7BDFD801BA84214D96B
:102010002068C16821F4D071C1602068416921F055
:1020200001014161202084F8390084F83A00002041
:1020300084F838000320BDE8F0812068016838EAA0
:10204000010004D00020B842DAD00020F3E70120DC
:10205000F9E7FEE72DE9F0410021012000F070F8DA
:10206000184C00212060012000F06AF86060002117
:10207000012000F065F8A06013A000F09DF8002199
:10208000032604F10C0701EB4102002007EB820557
:1020900090FBF6F2C31706FB120200EB937323F0DA
:1020A0000303C31A54F82220C3F10303DB00DA4010
:1020B0002A54401C0C28EBDB491C6029E3DBBDE8FB
:1020C000F08100003C0200200D0A77733238313273
:1020D00020696E6974000000F0B505461E4617467B
:1020E000012000F02DF8154C39462060012000F049
:1020F00027F860603146012000F022F8A06000223D
:1021000005EB450004F10C03114603EB800388073F
:1021100002D109B1521CD2B2CD1701EB957525F051
:1021200003054D1B54F82200C5F10305ED00E840FE
:102130005854491C0C29EADBF0BD00003C02002089
:10214000F0B504460020012C11D100220E260825EE
:1021500021FA02F3DB074FEA820702D006FA07F3FF
:1021600001E005FA07F31843521C082AF0DB022CA1
:1021700011D100220625042421FA02F3DB0702EB29
:10218000420602D005FA06F301E004FA06F318430A
:10219000521C082AF0DBF0BD10B500F0F7F8BDE8DE
:1021A00010404FF4906202490248FFF745B9000021
:1021B000C8060020A00000200FB4054B10B503A9ED
:1021C000044A029800F028F810BC5DF814FB0000E7
:1021D000CD2400081C0000200907090E002804DB9C
:1021E00000F1E02080F80014704700F00F0000F1CB
:1021F000E02080F8141D704702E008C8121F08C1D3
:10220000002AFAD170477047002001E001C1121F77
:10221000002AFBD1704700002DE9FF4F89B09B4693
:102220000446002506E025280BD05A460B99904716
:10223000641C6D1C20780028F5D10DB02846BDE83F
:10224000F08F0027B8460122474900E0074314F801
:10225000013F203B02FA03F00842F7D120782E28F4
:1022600019D114F8010F47F004072A280ED06FF097
:102270002F022078A0F1300109290CD808EB880141
:1022800002EB410100EB0108641CF2E70A98641CB0
:1022900050F8048B0A9020780028CED0642808D00B
:1022A000692806D075281ED05A460B9990476D1C98
:1022B00058E00A994FF00A0901C90A91002802DA88
:1022C00040422D2102E0390504D52B218DF8201044
:1022D000012103E0F90704D02021F7E78A4608AE80
:1022E0000DE00021FAE70A994FF00A0901C90A91A5
:1022F000F7E74946FDF728FF303106F8011D0028B1
:10230000F7D1ADEB060000F12009780701D44FF0BA
:102310000108C84502DDA8EB090000E00020804666
:10232000002706E008A85A46C05D0B9990476D1C2F
:102330007F1C5745F6DB04E030205A460B99904746
:102340006D1CB8F10001A8F10108F5DC05E016F8F4
:10235000010B5A460B9990476D1CB9F10001A9F188
:102360000109F4DC641C65E709280100054A0649F7
:10237000002032F8103041F82030401C0328F8DBF0
:10238000704700000400002094000020F0B50021F8
:10239000174C0A46002001EB410500EB8503401C69
:1023A000E2540C28F9DB491C0329F3DB114F03210C
:1023B00001EB4106002007EB86052B1800EB860C8D
:1023C00013F8243C401C04F80C300C28F5DB491CA5
:1023D0005D29EDDB5D21002001EB410300EB83056E
:1023E000401C62550C28F9DB491C6029F3DBF0BD69
:1023F000C80600204802002070B52C480178012949
:102400004FD100250570FFF7B1FF0021284A08468B
:1024100052F82030401CC0B219440328F8D387205A
:10242000B1FBF0F4A4F12A0007283ED3214621A0F5
:10243000FFF7C2FE24485A2C057001D95A2402E045
:102440000A2C00D20A246400143C5A2C01D95A24C4
:1024500001E02D2C10D92D250CE0FF220023114680
:102460002846FFF739FEFFF797FE1420FEF792FA91
:102470006D1CEDB2A542F0D32D2C10D22D250CE011
:10248000FF22002311462846FFF726FEFFF784FEB1
:102490001420FEF77FFA6D1EEDB2A542F0D8FFF7CB
:1024A000D9FDBDE8704000F059B870BD02000020B1
:1024B000940000200D0A2D2D2D2D2D766F6963655A
:1024C00025642D2D2D2D00000000002013B54FF6A2
:1024D000FF73012269460248FFF766FA00981CBDA7
:1024E000BC010020FEF75CFBFFF759FCFFF700FB87
:1024F000FFF7E0FAFFF7B6FAFFF718FBFFF770FBFC
:10250000FFF78AFBFFF736FB00F028F8FFF7A2FD84
:10251000FFF742FE0B48FFF753F800250A4CFFF780
:102520006BFF60780128FAD16570FFF793FDFFF724
:1025300033FE06A0FFF740FE00F010F80148FFF759
:102540003FF8ECE77C010020000000202D2D2D2D10
:102550002D2D2D2D2D2D2D2D0000000010B50748FF
:10256000FFF72EF8032206490648FEF731F8002847
:1025700003D0BDE81040FDF7C9BE10BD7C010020AE
:10258000040000202000002010B50648FFF729F8BD
:102590000548FEF7A3F8002803D0BDE81040FDF77A
:1025A000B5BE10BD7C01002020000020000000000E
:1025B00000000000010203040607080900000000F3
:1025C00001020304E42500080000002020000000B0
:1025D000F82100080426000820000020280F000031
:1025E00008220008000000000000000000000000B9
:1025F00000A24A04010000001000000000000000DA
:0426000000000000D6
:04000005080000ED02
:00000001FF
